:0400000055EF00F0C8
:060008005A8292ED05F0A2
:100018005A80D8CF14F0E8CF15F0E0CF16F0FACF19
:1000280017F0FBCF18F0E9CF19F0EACF1AF0E1CFBB
:100038001BF0E2CF1CF0D9CF1DF0DACF1EF0F3CFC2
:100048001FF0F4CF20F0F6CF21F0F7CF22F0F8CF51
:1000580023F0F5CF24F0F29EF28E24C0F5FF23C0E2
:10006800F8FF22C0F7FF21C0F6FF20C0F4FF1FC031
:10007800F3FF1EC0DAFF1DC0D9FF1CC0E2FF1BC082
:10008800E1FF1AC0EAFF19C0E9FF18C0FBFF17C05B
:10009800FAFF16C0E0FF15C0E8FF14C0D8FF5A9059
:0600A8001000DCEF05F082
:100600000001000A006400E80310276C6173746540
:1006100064206379636C65732025640A0D00507251
:0F0620006F6772616D2053746172740A0D000070
:10063000000E00018D6F000E8C6F000E00018A6F9E
:10064000000E896F000E00018F6F000E8E6F000E7E
:100650000001876F000E866F000E00018B6F000E89
:100660000001806F000E0001886FD388D38AD38C7D
:10067000030ED312D3A4FED753500F0BA009536E11
:10068000B50E266ECA0E256E4CEC07F0000E936E6A
:100690009594000E8A6E8C94000E266E330E256E95
:1006A000000E286E000E276E000E2A6E010E296EB7
:1006B000000E2C6E000E2B6EE6EC06F025EC07F01B
:1006C000D08EF28EF28C150E426E4B0E416EBE0E27
:1006D000E82EFED7412EFCD7422EFAD700D0000ECE
:1006E000316E010E326E1E0E336E060E346EEEEC5F
:1006F00004F0000E266E010E276ECBEC06F0000E05
:100700000001816F000E0001826F000E836F000EEA
:10071000846F000E856F5390000E00018F6F000EE6
:100720008E6F00018F5106E1080E00018E5DD8B07A
:1007300090D001D08ED04B0E00018E25D96E000EC8
:1007400000018F21DA6E61EC06F03150DF6E8EC051
:1007500041F0414653504118F10B4118536E8B0E36
:10076000256E000E266E530E276E000E286E000EAC
:100770002A6E010E296EABEC06F0000E00018D6FA3
:10078000000E8C6F00018D5158E1100E00018C5D40
:10079000D8B053D057EC07F000018B5131EC07F083
:1007A00000018C39F00B31EC07F0000E00018A6F6C
:1007B000000E896F00018A5133E1100E0001895D3E
:1007C000D8B02ED061EC06F031500001886F0001E6
:1007D000885131EC07F04B0E00018E25D96E000ECA
:1007E00000018F21DA6EDF50416E426A00018651AE
:1007F00041180FE1000187514218D8A40AD0430ED6
:1008000000018E25D96E000E00018F21DA6E88C09E
:10081000DFFF0001864B872B0001894B8A2BCAD74B
:1008200053EC07F00D0E416EFC0EE82EFED7412E64
:10083000FCD700018C4B8D2BA5D7000E0001876FD4
:10084000000E866F00018E4B8F2B00018F5101E14E
:100850006BD7000E00018F6F000E8E6F00018F515D
:1008600006E1080E00018E5DD8B0B0D001D0AED048
:100870008EC041F0414653504118F10B4118536E60
:1008800053908B0E256E000E266E530E276E000EB3
:10089000286E000E2A6E010E296EABEC06F057ECA6
:1008A00007F000018B5131EC07F0000E31EC07F03E
:1008B00053808B0E256E000E266E530E276E000E93
:1008C000286E000E2A6E010E296EABEC06F05BEC72
:1008D00007F000018B5131EC07F0000E00018D6F25
:1008E000000E8C6F00018D5114E100018C29D8B0ED
:1008F00010D0000E00018C25D96E020E00018D2152
:10090000DA6E010E18EC07F0DF6E00018C4B8D2BB8
:10091000E9D7000E18EC07F00201FF6F53EC07F067
:10092000000E00018D6F000E8C6F00018D05D8B098
:1009300046D04B0E00018E25D96E000E00018F218E
:10094000DA6EDF50416E426A00018C51411833E18A
:1009500000018D514218D8A42ED0000E00018C2524
:10096000D96E020E00018D21DA6E430E00018E2534
:10097000E16E000E00018F21E26EDE50E618D8B461
:100980001AD08A68000E316E010E326E0B0E336E75
:10099000060E346E82C035F083C036F084C037F066
:1009A00085C038F0EEEC04F0000E266E010E276EC6
:1009B000CBEC06F0FFD700018C4B8D2BB6D7000196
:1009C0008E4B8F2B00018F5101E14BD7010E00019F
:1009D0008227000E8323842385239DD6350E3A6E0D
:1009E000000E3B6E8CD0250E4018D8B409D031C013
:1009F000D9FF32C0DAFF40C0DFFF314A322A7FD050
:100A0000000E3C6E33C0F6FF34C0F7FF334A342A81
:100A10000800F5CF40F04050000AD8B47CD0640AFA
:100A2000D8B403D00D0AD8A46AD03AC0D9FF3BC0CD
:100A3000DAFFDECF3EF0DDCF3FF0020E3A26000EA9
:100A40003B223FAE06D0030E3C123E6C3F1ED8B098
:100A50003F2A010E406E050E4018D8B412D0405007
:100A6000020D010EF324F66E060EF420F76E090057
:100A7000F5503E5C0900F5503F58D8A002D0402AFE
:100A8000EAD73CC039F0030E3916D8B408D031C0CB
:100A9000D9FF32C0DAFF2D0EDF6E314A322A40C054
:100AA0003DF029D03D50020D010EF324F66E060EE6
:100AB000F420F76E0900F5CF27F00A00F5CF28F0F3
:100AC0003EC025F03FC026F038EC06F025C02CF0E3
:100AD00026C02DF0000E2F6E0A0E2E6E8AEC06F048
:100AE0002C50300F406E31C0D9FF32C0DAFF40C009
:100AF000DFFF314A322A3D063D28D8A4D3D733C080
:100B0000F6FF34C0F7FF334A342A0800F5CF40F02F
:100B10004050D8A468D731C0D9FF32C0DAFF000EE8
:100B2000DF6E12000600FACF06F0FBCF07F0E9CF28
:100B300008F0EACF09F0E1CF0AF0E2CF0BF0D9CF0D
:100B40000CF0DACF0DF0F3CF0EF0F4CF0FF0F6CFBC
:100B500010F0F7CF11F0F8CF12F0F5CF13F0F29EAE
:100B60009EAA0BD0550E016E000E026E540E036E3F
:100B7000000E046E01EC07F09E9AF28E13C0F5FF92
:100B800012C0F8FF11C0F7FF10C0F6FF0FC0F4FF4E
:100B90000EC0F3FF0DC0DAFF0CC0D9FF0BC0E2FF9F
:100BA0000AC0E1FF09C0EAFF08C0E9FF07C0FBFF78
:100BB00006C0FAFF5A921100BE0EF66E0E0EF76EC8
:100BC000000EF86E00EE56F010EE04F00900F5CFBE
:100BD000EEFFE550E150FAE102EE00F011EE00F018
:100BE000EE6AE550E150FCE1E250FAE101EE00F07E
:100BF00011EE00F0EE6AE550E150FCE1E250FAE15E
:100C000000EE43F0130EEE6AE806FDE15A905A92A8
:100C1000000EF86E000118EF03F0000E2D6E000EAE
:100C20002E6E000E2F6E000E306E25A008D02950BB
:100C30002D262A502E222B502F222C503022D89095
:100C400029362A362B362C36D890283227322632AF
:100C500025322550261027102810D8A4E6D72DC0FD
:100C600025F02EC026F02FC027F030C028F012004B
:100C7000000E2B6E000E2A6E27502810D8B41CD000
:100C8000010E296E04D0D89027362836292A28AE9E
:100C9000FAD7D8902A362B362750255C285026586C
:100CA000D8A005D02750255E2850265A2A80D890F3
:100CB00028322732292EEDD72AC025F02BC026F066
:100CC000120056C025F057C026F058C027F059C072
:100CD00028F06D0E296E4E0E2A6EC60E2B6E410E3A
:100CE0002C6E0DEC06F025C056F026C057F027C03C
:100CF00058F028C059F0390E5626300E5722000EF3
:100D00005822000E5922FF0E5814316E7F0E5914CE
:100D1000326E12002E502F10D8B418D0010E306E43
:100D200004D0D8902E362F36302A2FAEFAD72E5038
:100D30002C5C2F502D58D8A004D02E502C5E2F5054
:100D40002D5AD8902F322E32302EF1D72CC02CF0C5
:100D50002DC02DF0120027C02DF028C02EF025C088
:100D60002BF026C02CF00ED02DC0D9FF2EC0DAFFFC
:100D70002BC0E1FF2CC0E2FFDFCFE7FF2D4A2E2A78
:100D80002B4A2C2A2906D8A02A062928EDE12A2850
:100D9000D8B41200E9D7000E286E0CD02850010DEF
:100DA000F3502624D96EF4502720DA6EDF5044EC3D
:100DB00007F0282A2850010DF3502624D96EF4504C
:100DC0002720DA6EDF50D8B41200E8D7948E948CC6
:100DD0002650B06E25C0AFFFAB88AB8E2BB002D0D3
:100DE000B89601D0B88627B002D0AC9801D0AC88B4
:100DF00029B002D0AC9401D0AC84AC8A9F8A9D8A81
:100E00001200ABA403D0AECF05F01200ABA203D00A
:100E1000AB98AB88120001C0D9FF02C0DAFFAECF99
:100E2000DFFF03C0D9FF04C0DAFF010EDF6E12003E
:100E3000266E3BEC07F0C586C7A0FED726B002D0D1
:100E4000C59801D0C588C950120094869488C78E71
:100E5000C79CC650F00B0809C66E130EC86EC68A32
:100E60001200266E3BEC07F026C0C9FFC7B0FED7C4
:100E7000C5AC1200FDD7C5CF25F01F0E2516D8A48E
:100E8000FAD7C7A41200F7D7256E25C0ADFF01D051
:100E900000F0ACB21200FCD725C056F026C057F0C7
:100EA000586A596A12003BEC07F0C58412003BEC0B
:100EB00007F0C58012003BEC07F0C582120001006C
:020EC000000030
:020000040020DA
:08000000FFFFFFFFFFFFFFFF00
:020000040030CA
:0E000000FF08191EFF8181FF0FC00FE00F40A7
:00000001FF
